{
  "_format": "hh-sol-artifact-1",
  "contractName": "EnergyToken",
  "sourceName": "contracts/EnergyToken.sol",
  "abi": [
    {
      "inputs": [
        {
          "internalType": "string",
          "name": "_name",
          "type": "string"
        },
        {
          "internalType": "string",
          "name": "_symbol",
          "type": "string"
        }
      ],
      "stateMutability": "nonpayable",
      "type": "constructor"
    },
    {
      "anonymous": false,
      "inputs": [
        {
          "indexed": true,
          "internalType": "address",
          "name": "owner",
          "type": "address"
        },
        {
          "indexed": true,
          "internalType": "address",
          "name": "approved",
          "type": "address"
        },
        {
          "indexed": true,
          "internalType": "uint256",
          "name": "tokenId",
          "type": "uint256"
        }
      ],
      "name": "Approval",
      "type": "event"
    },
    {
      "anonymous": false,
      "inputs": [
        {
          "indexed": true,
          "internalType": "address",
          "name": "owner",
          "type": "address"
        },
        {
          "indexed": true,
          "internalType": "address",
          "name": "operator",
          "type": "address"
        },
        {
          "indexed": false,
          "internalType": "bool",
          "name": "approved",
          "type": "bool"
        }
      ],
      "name": "ApprovalForAll",
      "type": "event"
    },
    {
      "anonymous": false,
      "inputs": [
        {
          "indexed": true,
          "internalType": "address",
          "name": "from",
          "type": "address"
        },
        {
          "indexed": true,
          "internalType": "address",
          "name": "to",
          "type": "address"
        },
        {
          "indexed": true,
          "internalType": "uint256",
          "name": "tokenId",
          "type": "uint256"
        }
      ],
      "name": "Transfer",
      "type": "event"
    },
    {
      "inputs": [
        {
          "internalType": "address",
          "name": "to",
          "type": "address"
        },
        {
          "internalType": "uint256",
          "name": "tokenId",
          "type": "uint256"
        }
      ],
      "name": "approve",
      "outputs": [],
      "stateMutability": "nonpayable",
      "type": "function"
    },
    {
      "inputs": [
        {
          "internalType": "address",
          "name": "owner",
          "type": "address"
        }
      ],
      "name": "balanceOf",
      "outputs": [
        {
          "internalType": "uint256",
          "name": "",
          "type": "uint256"
        }
      ],
      "stateMutability": "view",
      "type": "function"
    },
    {
      "inputs": [
        {
          "internalType": "uint256",
          "name": "_id",
          "type": "uint256"
        }
      ],
      "name": "buyEnergy",
      "outputs": [],
      "stateMutability": "payable",
      "type": "function"
    },
    {
      "inputs": [
        {
          "internalType": "uint256",
          "name": "tokenId",
          "type": "uint256"
        }
      ],
      "name": "getApproved",
      "outputs": [
        {
          "internalType": "address",
          "name": "",
          "type": "address"
        }
      ],
      "stateMutability": "view",
      "type": "function"
    },
    {
      "inputs": [
        {
          "internalType": "address",
          "name": "_adr",
          "type": "address"
        }
      ],
      "name": "getPin",
      "outputs": [
        {
          "internalType": "uint256",
          "name": "",
          "type": "uint256"
        }
      ],
      "stateMutability": "view",
      "type": "function"
    },
    {
      "inputs": [
        {
          "internalType": "uint256",
          "name": "_id",
          "type": "uint256"
        }
      ],
      "name": "getSellRequest",
      "outputs": [
        {
          "components": [
            {
              "internalType": "uint256",
              "name": "id",
              "type": "uint256"
            },
            {
              "internalType": "address",
              "name": "creator",
              "type": "address"
            },
            {
              "internalType": "uint256",
              "name": "price",
              "type": "uint256"
            },
            {
              "internalType": "uint256",
              "name": "amount",
              "type": "uint256"
            },
            {
              "internalType": "uint256",
              "name": "status",
              "type": "uint256"
            }
          ],
          "internalType": "struct EnergyToken.SellRequestDemand",
          "name": "",
          "type": "tuple"
        }
      ],
      "stateMutability": "view",
      "type": "function"
    },
    {
      "inputs": [
        {
          "internalType": "address",
          "name": "owner",
          "type": "address"
        },
        {
          "internalType": "address",
          "name": "operator",
          "type": "address"
        }
      ],
      "name": "isApprovedForAll",
      "outputs": [
        {
          "internalType": "bool",
          "name": "",
          "type": "bool"
        }
      ],
      "stateMutability": "view",
      "type": "function"
    },
    {
      "inputs": [
        {
          "internalType": "uint256",
          "name": "_amount",
          "type": "uint256"
        },
        {
          "internalType": "uint256",
          "name": "_price",
          "type": "uint256"
        }
      ],
      "name": "listSellRequest",
      "outputs": [],
      "stateMutability": "nonpayable",
      "type": "function"
    },
    {
      "inputs": [],
      "name": "name",
      "outputs": [
        {
          "internalType": "string",
          "name": "",
          "type": "string"
        }
      ],
      "stateMutability": "view",
      "type": "function"
    },
    {
      "inputs": [],
      "name": "owner",
      "outputs": [
        {
          "internalType": "address",
          "name": "",
          "type": "address"
        }
      ],
      "stateMutability": "view",
      "type": "function"
    },
    {
      "inputs": [
        {
          "internalType": "uint256",
          "name": "tokenId",
          "type": "uint256"
        }
      ],
      "name": "ownerOf",
      "outputs": [
        {
          "internalType": "address",
          "name": "",
          "type": "address"
        }
      ],
      "stateMutability": "view",
      "type": "function"
    },
    {
      "inputs": [
        {
          "internalType": "address",
          "name": "from",
          "type": "address"
        },
        {
          "internalType": "address",
          "name": "to",
          "type": "address"
        },
        {
          "internalType": "uint256",
          "name": "tokenId",
          "type": "uint256"
        }
      ],
      "name": "safeTransferFrom",
      "outputs": [],
      "stateMutability": "nonpayable",
      "type": "function"
    },
    {
      "inputs": [
        {
          "internalType": "address",
          "name": "from",
          "type": "address"
        },
        {
          "internalType": "address",
          "name": "to",
          "type": "address"
        },
        {
          "internalType": "uint256",
          "name": "tokenId",
          "type": "uint256"
        },
        {
          "internalType": "bytes",
          "name": "data",
          "type": "bytes"
        }
      ],
      "name": "safeTransferFrom",
      "outputs": [],
      "stateMutability": "nonpayable",
      "type": "function"
    },
    {
      "inputs": [
        {
          "internalType": "uint256",
          "name": "",
          "type": "uint256"
        }
      ],
      "name": "sellRequests",
      "outputs": [
        {
          "internalType": "uint256",
          "name": "id",
          "type": "uint256"
        },
        {
          "internalType": "address",
          "name": "creator",
          "type": "address"
        },
        {
          "internalType": "uint256",
          "name": "price",
          "type": "uint256"
        },
        {
          "internalType": "uint256",
          "name": "amount",
          "type": "uint256"
        },
        {
          "internalType": "uint256",
          "name": "status",
          "type": "uint256"
        }
      ],
      "stateMutability": "view",
      "type": "function"
    },
    {
      "inputs": [
        {
          "internalType": "address",
          "name": "operator",
          "type": "address"
        },
        {
          "internalType": "bool",
          "name": "approved",
          "type": "bool"
        }
      ],
      "name": "setApprovalForAll",
      "outputs": [],
      "stateMutability": "nonpayable",
      "type": "function"
    },
    {
      "inputs": [
        {
          "internalType": "address",
          "name": "_user",
          "type": "address"
        },
        {
          "internalType": "uint256",
          "name": "pinId",
          "type": "uint256"
        }
      ],
      "name": "setPin",
      "outputs": [],
      "stateMutability": "nonpayable",
      "type": "function"
    },
    {
      "inputs": [
        {
          "internalType": "bytes4",
          "name": "interfaceId",
          "type": "bytes4"
        }
      ],
      "name": "supportsInterface",
      "outputs": [
        {
          "internalType": "bool",
          "name": "",
          "type": "bool"
        }
      ],
      "stateMutability": "view",
      "type": "function"
    },
    {
      "inputs": [],
      "name": "symbol",
      "outputs": [
        {
          "internalType": "string",
          "name": "",
          "type": "string"
        }
      ],
      "stateMutability": "view",
      "type": "function"
    },
    {
      "inputs": [
        {
          "internalType": "uint256",
          "name": "tokenId",
          "type": "uint256"
        }
      ],
      "name": "tokenURI",
      "outputs": [
        {
          "internalType": "string",
          "name": "",
          "type": "string"
        }
      ],
      "stateMutability": "view",
      "type": "function"
    },
    {
      "inputs": [],
      "name": "totalSellRequests",
      "outputs": [
        {
          "internalType": "uint256",
          "name": "",
          "type": "uint256"
        }
      ],
      "stateMutability": "view",
      "type": "function"
    },
    {
      "inputs": [],
      "name": "totalTrades",
      "outputs": [
        {
          "internalType": "uint256",
          "name": "",
          "type": "uint256"
        }
      ],
      "stateMutability": "view",
      "type": "function"
    },
    {
      "inputs": [
        {
          "internalType": "address",
          "name": "from",
          "type": "address"
        },
        {
          "internalType": "address",
          "name": "to",
          "type": "address"
        },
        {
          "internalType": "uint256",
          "name": "tokenId",
          "type": "uint256"
        }
      ],
      "name": "transferFrom",
      "outputs": [],
      "stateMutability": "nonpayable",
      "type": "function"
    }
  ],
  "bytecode": "0x60806040523480156200001157600080fd5b50604051620039df380380620039df83398181016040528101906200003791906200023b565b818181600090816200004a91906200050b565b5080600190816200005c91906200050b565b50505033600660006101000a81548173ffffffffffffffffffffffffffffffffffffffff021916908373ffffffffffffffffffffffffffffffffffffffff1602179055505050620005f2565b6000604051905090565b600080fd5b600080fd5b600080fd5b600080fd5b6000601f19601f8301169050919050565b7f4e487b7100000000000000000000000000000000000000000000000000000000600052604160045260246000fd5b6200011182620000c6565b810181811067ffffffffffffffff82111715620001335762000132620000d7565b5b80604052505050565b600062000148620000a8565b905062000156828262000106565b919050565b600067ffffffffffffffff821115620001795762000178620000d7565b5b6200018482620000c6565b9050602081019050919050565b60005b83811015620001b157808201518184015260208101905062000194565b60008484015250505050565b6000620001d4620001ce846200015b565b6200013c565b905082815260208101848484011115620001f357620001f2620000c1565b5b6200020084828562000191565b509392505050565b600082601f83011262000220576200021f620000bc565b5b815162000232848260208601620001bd565b91505092915050565b60008060408385031215620002555762000254620000b2565b5b600083015167ffffffffffffffff811115620002765762000275620000b7565b5b620002848582860162000208565b925050602083015167ffffffffffffffff811115620002a857620002a7620000b7565b5b620002b68582860162000208565b9150509250929050565b600081519050919050565b7f4e487b7100000000000000000000000000000000000000000000000000000000600052602260045260246000fd5b600060028204905060018216806200031357607f821691505b602082108103620003295762000328620002cb565b5b50919050565b60008190508160005260206000209050919050565b60006020601f8301049050919050565b600082821b905092915050565b600060088302620003937fffffffffffffffffffffffffffffffffffffffffffffffffffffffffffffffff8262000354565b6200039f868362000354565b95508019841693508086168417925050509392505050565b6000819050919050565b6000819050919050565b6000620003ec620003e6620003e084620003b7565b620003c1565b620003b7565b9050919050565b6000819050919050565b6200040883620003cb565b620004206200041782620003f3565b84845462000361565b825550505050565b600090565b6200043762000428565b62000444818484620003fd565b505050565b5b818110156200046c57620004606000826200042d565b6001810190506200044a565b5050565b601f821115620004bb5762000485816200032f565b620004908462000344565b81016020851015620004a0578190505b620004b8620004af8562000344565b83018262000449565b50505b505050565b600082821c905092915050565b6000620004e060001984600802620004c0565b1980831691505092915050565b6000620004fb8383620004cd565b9150826002028217905092915050565b6200051682620002c0565b67ffffffffffffffff811115620005325762000531620000d7565b5b6200053e8254620002fa565b6200054b82828562000470565b600060209050601f8311600181146200058357600084156200056e578287015190505b6200057a8582620004ed565b865550620005ea565b601f19841662000593866200032f565b60005b82811015620005bd5784890151825560018201915060208501945060208101905062000596565b86831015620005dd5784890151620005d9601f891682620004cd565b8355505b6001600288020188555050505b505050505050565b6133dd80620006026000396000f3fe6080604052600436106101355760003560e01c806370a08231116100ab578063a303be8f1161006f578063a303be8f1461044e578063b88d4fde1461048b578063bc8a251f146104b4578063c87b56dd146104d0578063e275c9971461050d578063e985e9c51461053857610135565b806370a08231146103695780638da5cb5b146103a657806395d89b41146103d157806395fc4c40146103fc578063a22cb4651461042557610135565b80631a5230bb116100fd5780631a5230bb1461023357806323b872dd1461027457806342842e0e1461029d57806358e38348146102c657806360df3c0c146103035780636352211e1461032c57610135565b806301ffc9a71461013a57806306fdde031461017757806307a734ed146101a2578063081812fc146101cd578063095ea7b31461020a575b600080fd5b34801561014657600080fd5b50610161600480360381019061015c919061218c565b610575565b60405161016e91906121d4565b60405180910390f35b34801561018357600080fd5b5061018c610657565b604051610199919061227f565b60405180910390f35b3480156101ae57600080fd5b506101b76106e9565b6040516101c491906122ba565b60405180910390f35b3480156101d957600080fd5b506101f460048036038101906101ef9190612301565b6106ef565b604051610201919061236f565b60405180910390f35b34801561021657600080fd5b50610231600480360381019061022c91906123b6565b610735565b005b34801561023f57600080fd5b5061025a60048036038101906102559190612301565b61084c565b60405161026b9594939291906123f6565b60405180910390f35b34801561028057600080fd5b5061029b60048036038101906102969190612449565b6108a2565b005b3480156102a957600080fd5b506102c460048036038101906102bf9190612449565b610902565b005b3480156102d257600080fd5b506102ed60048036038101906102e89190612301565b610922565b6040516102fa9190612522565b60405180910390f35b34801561030f57600080fd5b5061032a600480360381019061032591906123b6565b6109cd565b005b34801561033857600080fd5b50610353600480360381019061034e9190612301565b610aa5565b604051610360919061236f565b60405180910390f35b34801561037557600080fd5b50610390600480360381019061038b919061253d565b610b2b565b60405161039d91906122ba565b60405180910390f35b3480156103b257600080fd5b506103bb610be2565b6040516103c8919061236f565b60405180910390f35b3480156103dd57600080fd5b506103e6610c08565b6040516103f3919061227f565b60405180910390f35b34801561040857600080fd5b50610423600480360381019061041e919061256a565b610c9a565b005b34801561043157600080fd5b5061044c600480360381019061044791906125d6565b610e9e565b005b34801561045a57600080fd5b506104756004803603810190610470919061253d565b610eb4565b60405161048291906122ba565b60405180910390f35b34801561049757600080fd5b506104b260048036038101906104ad919061274b565b610efd565b005b6104ce60048036038101906104c99190612301565b610f5f565b005b3480156104dc57600080fd5b506104f760048036038101906104f29190612301565b61120b565b604051610504919061227f565b60405180910390f35b34801561051957600080fd5b50610522611273565b60405161052f91906122ba565b60405180910390f35b34801561054457600080fd5b5061055f600480360381019061055a91906127ce565b611279565b60405161056c91906121d4565b60405180910390f35b60007f80ac58cd000000000000000000000000000000000000000000000000000000007bffffffffffffffffffffffffffffffffffffffffffffffffffffffff1916827bffffffffffffffffffffffffffffffffffffffffffffffffffffffff1916148061064057507f5b5e139f000000000000000000000000000000000000000000000000000000007bffffffffffffffffffffffffffffffffffffffffffffffffffffffff1916827bffffffffffffffffffffffffffffffffffffffffffffffffffffffff1916145b80610650575061064f8261130d565b5b9050919050565b6060600080546106669061283d565b80601f01602080910402602001604051908101604052809291908181526020018280546106929061283d565b80156106df5780601f106106b4576101008083540402835291602001916106df565b820191906000526020600020905b8154815290600101906020018083116106c257829003601f168201915b5050505050905090565b60075481565b60006106fa82611377565b6004600083815260200190815260200160002060009054906101000a900473ffffffffffffffffffffffffffffffffffffffff169050919050565b600061074082610aa5565b90508073ffffffffffffffffffffffffffffffffffffffff168373ffffffffffffffffffffffffffffffffffffffff16036107b0576040517f08c379a00000000000000000000000000000000000000000000000000000000081526004016107a7906128e0565b60405180910390fd5b8073ffffffffffffffffffffffffffffffffffffffff166107cf6113c2565b73ffffffffffffffffffffffffffffffffffffffff1614806107fe57506107fd816107f86113c2565b611279565b5b61083d576040517f08c379a000000000000000000000000000000000000000000000000000000000815260040161083490612972565b60405180910390fd5b61084783836113ca565b505050565b600a6020528060005260406000206000915090508060000154908060010160009054906101000a900473ffffffffffffffffffffffffffffffffffffffff16908060020154908060030154908060040154905085565b6108b36108ad6113c2565b82611483565b6108f2576040517f08c379a00000000000000000000000000000000000000000000000000000000081526004016108e990612a04565b60405180910390fd5b6108fd838383611518565b505050565b61091d83838360405180602001604052806000815250610efd565b505050565b61092a6120db565b600a60008381526020019081526020016000206040518060a0016040529081600082015481526020016001820160009054906101000a900473ffffffffffffffffffffffffffffffffffffffff1673ffffffffffffffffffffffffffffffffffffffff1673ffffffffffffffffffffffffffffffffffffffff16815260200160028201548152602001600382015481526020016004820154815250509050919050565b600660009054906101000a900473ffffffffffffffffffffffffffffffffffffffff1673ffffffffffffffffffffffffffffffffffffffff163373ffffffffffffffffffffffffffffffffffffffff1614610a5d576040517f08c379a0000000000000000000000000000000000000000000000000000000008152600401610a5490612a70565b60405180910390fd5b80600960008473ffffffffffffffffffffffffffffffffffffffff1673ffffffffffffffffffffffffffffffffffffffff168152602001908152602001600020819055505050565b600080610ab183611811565b9050600073ffffffffffffffffffffffffffffffffffffffff168173ffffffffffffffffffffffffffffffffffffffff1603610b22576040517f08c379a0000000000000000000000000000000000000000000000000000000008152600401610b1990612adc565b60405180910390fd5b80915050919050565b60008073ffffffffffffffffffffffffffffffffffffffff168273ffffffffffffffffffffffffffffffffffffffff1603610b9b576040517f08c379a0000000000000000000000000000000000000000000000000000000008152600401610b9290612b6e565b60405180910390fd5b600360008373ffffffffffffffffffffffffffffffffffffffff1673ffffffffffffffffffffffffffffffffffffffff168152602001908152602001600020549050919050565b600660009054906101000a900473ffffffffffffffffffffffffffffffffffffffff1681565b606060018054610c179061283d565b80601f0160208091040260200160405190810160405280929190818152602001828054610c439061283d565b8015610c905780601f10610c6557610100808354040283529160200191610c90565b820191906000526020600020905b815481529060010190602001808311610c7357829003601f168201915b5050505050905090565b6000600960003373ffffffffffffffffffffffffffffffffffffffff1673ffffffffffffffffffffffffffffffffffffffff1681526020019081526020016000205403610d1c576040517f08c379a0000000000000000000000000000000000000000000000000000000008152600401610d1390612bda565b60405180910390fd5b60008211610d5f576040517f08c379a0000000000000000000000000000000000000000000000000000000008152600401610d5690612c46565b60405180910390fd5b60008111610da2576040517f08c379a0000000000000000000000000000000000000000000000000000000008152600401610d9990612cb2565b60405180910390fd5b60076000815480929190610db590612d01565b91905055506000670de0b6b3a764000082610dd09190612d49565b90506040518060a0016040528060075481526020013373ffffffffffffffffffffffffffffffffffffffff1681526020018281526020018481526020016001815250600a600060075481526020019081526020016000206000820151816000015560208201518160010160006101000a81548173ffffffffffffffffffffffffffffffffffffffff021916908373ffffffffffffffffffffffffffffffffffffffff160217905550604082015181600201556060820151816003015560808201518160040155905050505050565b610eb0610ea96113c2565b838361184e565b5050565b6000600960008373ffffffffffffffffffffffffffffffffffffffff1673ffffffffffffffffffffffffffffffffffffffff168152602001908152602001600020549050919050565b610f0e610f086113c2565b83611483565b610f4d576040517f08c379a0000000000000000000000000000000000000000000000000000000008152600401610f4490612a04565b60405180910390fd5b610f59848484846119ba565b50505050565b6000600960003373ffffffffffffffffffffffffffffffffffffffff1673ffffffffffffffffffffffffffffffffffffffff1681526020019081526020016000205403610fe1576040517f08c379a0000000000000000000000000000000000000000000000000000000008152600401610fd890612bda565b60405180910390fd5b60008114158015610ff457506007548111155b611033576040517f08c379a000000000000000000000000000000000000000000000000000000000815260040161102a90612dd7565b60405180910390fd5b6000600a600083815260200190815260200160002090506001816004015414611091576040517f08c379a000000000000000000000000000000000000000000000000000000000815260040161108890612e43565b60405180910390fd5b8060010160009054906101000a900473ffffffffffffffffffffffffffffffffffffffff1673ffffffffffffffffffffffffffffffffffffffff163373ffffffffffffffffffffffffffffffffffffffff1603611123576040517f08c379a000000000000000000000000000000000000000000000000000000000815260040161111a90612eaf565b60405180910390fd5b806002015434101561116a576040517f08c379a000000000000000000000000000000000000000000000000000000000815260040161116190612f1b565b60405180910390fd5b600081600401819055506008600081548092919061118790612d01565b91905055508060010160009054906101000a900473ffffffffffffffffffffffffffffffffffffffff1673ffffffffffffffffffffffffffffffffffffffff166108fc82600201549081150290604051600060405180830381858888f193505050501580156111fa573d6000803e3d6000fd5b5061120733600854611a16565b5050565b606061121682611377565b6000611220611a34565b90506000815111611240576040518060200160405280600081525061126b565b8061124a84611a4b565b60405160200161125b929190612f77565b6040516020818303038152906040525b915050919050565b60085481565b6000600560008473ffffffffffffffffffffffffffffffffffffffff1673ffffffffffffffffffffffffffffffffffffffff16815260200190815260200160002060008373ffffffffffffffffffffffffffffffffffffffff1673ffffffffffffffffffffffffffffffffffffffff16815260200190815260200160002060009054906101000a900460ff16905092915050565b60007f01ffc9a7000000000000000000000000000000000000000000000000000000007bffffffffffffffffffffffffffffffffffffffffffffffffffffffff1916827bffffffffffffffffffffffffffffffffffffffffffffffffffffffff1916149050919050565b61138081611b19565b6113bf576040517f08c379a00000000000000000000000000000000000000000000000000000000081526004016113b690612adc565b60405180910390fd5b50565b600033905090565b816004600083815260200190815260200160002060006101000a81548173ffffffffffffffffffffffffffffffffffffffff021916908373ffffffffffffffffffffffffffffffffffffffff160217905550808273ffffffffffffffffffffffffffffffffffffffff1661143d83610aa5565b73ffffffffffffffffffffffffffffffffffffffff167f8c5be1e5ebec7d5bd14f71427d1e84f3dd0314c0f7b2291e5b200ac8c7c3b92560405160405180910390a45050565b60008061148f83610aa5565b90508073ffffffffffffffffffffffffffffffffffffffff168473ffffffffffffffffffffffffffffffffffffffff1614806114d157506114d08185611279565b5b8061150f57508373ffffffffffffffffffffffffffffffffffffffff166114f7846106ef565b73ffffffffffffffffffffffffffffffffffffffff16145b91505092915050565b8273ffffffffffffffffffffffffffffffffffffffff1661153882610aa5565b73ffffffffffffffffffffffffffffffffffffffff161461158e576040517f08c379a00000000000000000000000000000000000000000000000000000000081526004016115859061300d565b60405180910390fd5b600073ffffffffffffffffffffffffffffffffffffffff168273ffffffffffffffffffffffffffffffffffffffff16036115fd576040517f08c379a00000000000000000000000000000000000000000000000000000000081526004016115f49061309f565b60405180910390fd5b61160a8383836001611b5a565b8273ffffffffffffffffffffffffffffffffffffffff1661162a82610aa5565b73ffffffffffffffffffffffffffffffffffffffff1614611680576040517f08c379a00000000000000000000000000000000000000000000000000000000081526004016116779061300d565b60405180910390fd5b6004600082815260200190815260200160002060006101000a81549073ffffffffffffffffffffffffffffffffffffffff02191690556001600360008573ffffffffffffffffffffffffffffffffffffffff1673ffffffffffffffffffffffffffffffffffffffff168152602001908152602001600020600082825403925050819055506001600360008473ffffffffffffffffffffffffffffffffffffffff1673ffffffffffffffffffffffffffffffffffffffff16815260200190815260200160002060008282540192505081905550816002600083815260200190815260200160002060006101000a81548173ffffffffffffffffffffffffffffffffffffffff021916908373ffffffffffffffffffffffffffffffffffffffff160217905550808273ffffffffffffffffffffffffffffffffffffffff168473ffffffffffffffffffffffffffffffffffffffff167fddf252ad1be2c89b69c2b068fc378daa952ba7f163c4a11628f55a4df523b3ef60405160405180910390a461180c8383836001611b60565b505050565b60006002600083815260200190815260200160002060009054906101000a900473ffffffffffffffffffffffffffffffffffffffff169050919050565b8173ffffffffffffffffffffffffffffffffffffffff168373ffffffffffffffffffffffffffffffffffffffff16036118bc576040517f08c379a00000000000000000000000000000000000000000000000000000000081526004016118b39061310b565b60405180910390fd5b80600560008573ffffffffffffffffffffffffffffffffffffffff1673ffffffffffffffffffffffffffffffffffffffff16815260200190815260200160002060008473ffffffffffffffffffffffffffffffffffffffff1673ffffffffffffffffffffffffffffffffffffffff16815260200190815260200160002060006101000a81548160ff0219169083151502179055508173ffffffffffffffffffffffffffffffffffffffff168373ffffffffffffffffffffffffffffffffffffffff167f17307eab39ab6107e8899845ad3d59bd9653f200f220920489ca2b5937696c31836040516119ad91906121d4565b60405180910390a3505050565b6119c5848484611518565b6119d184848484611b66565b611a10576040517f08c379a0000000000000000000000000000000000000000000000000000000008152600401611a079061319d565b60405180910390fd5b50505050565b611a30828260405180602001604052806000815250611ced565b5050565b606060405180602001604052806000815250905090565b606060006001611a5a84611d48565b01905060008167ffffffffffffffff811115611a7957611a78612620565b5b6040519080825280601f01601f191660200182016040528015611aab5781602001600182028036833780820191505090505b509050600082602001820190505b600115611b0e578080600190039150507f3031323334353637383961626364656600000000000000000000000000000000600a86061a8153600a8581611b0257611b016131bd565b5b04945060008503611ab9575b819350505050919050565b60008073ffffffffffffffffffffffffffffffffffffffff16611b3b83611811565b73ffffffffffffffffffffffffffffffffffffffff1614159050919050565b50505050565b50505050565b6000611b878473ffffffffffffffffffffffffffffffffffffffff16611e9b565b15611ce0578373ffffffffffffffffffffffffffffffffffffffff1663150b7a02611bb06113c2565b8786866040518563ffffffff1660e01b8152600401611bd29493929190613241565b6020604051808303816000875af1925050508015611c0e57506040513d601f19601f82011682018060405250810190611c0b91906132a2565b60015b611c90573d8060008114611c3e576040519150601f19603f3d011682016040523d82523d6000602084013e611c43565b606091505b506000815103611c88576040517f08c379a0000000000000000000000000000000000000000000000000000000008152600401611c7f9061319d565b60405180910390fd5b805181602001fd5b63150b7a0260e01b7bffffffffffffffffffffffffffffffffffffffffffffffffffffffff1916817bffffffffffffffffffffffffffffffffffffffffffffffffffffffff191614915050611ce5565b600190505b949350505050565b611cf78383611ebe565b611d046000848484611b66565b611d43576040517f08c379a0000000000000000000000000000000000000000000000000000000008152600401611d3a9061319d565b60405180910390fd5b505050565b600080600090507a184f03e93ff9f4daa797ed6e38ed64bf6a1f0100000000000000008310611da6577a184f03e93ff9f4daa797ed6e38ed64bf6a1f0100000000000000008381611d9c57611d9b6131bd565b5b0492506040810190505b6d04ee2d6d415b85acef81000000008310611de3576d04ee2d6d415b85acef81000000008381611dd957611dd86131bd565b5b0492506020810190505b662386f26fc100008310611e1257662386f26fc100008381611e0857611e076131bd565b5b0492506010810190505b6305f5e1008310611e3b576305f5e1008381611e3157611e306131bd565b5b0492506008810190505b6127108310611e60576127108381611e5657611e556131bd565b5b0492506004810190505b60648310611e835760648381611e7957611e786131bd565b5b0492506002810190505b600a8310611e92576001810190505b80915050919050565b6000808273ffffffffffffffffffffffffffffffffffffffff163b119050919050565b600073ffffffffffffffffffffffffffffffffffffffff168273ffffffffffffffffffffffffffffffffffffffff1603611f2d576040517f08c379a0000000000000000000000000000000000000000000000000000000008152600401611f249061331b565b60405180910390fd5b611f3681611b19565b15611f76576040517f08c379a0000000000000000000000000000000000000000000000000000000008152600401611f6d90613387565b60405180910390fd5b611f84600083836001611b5a565b611f8d81611b19565b15611fcd576040517f08c379a0000000000000000000000000000000000000000000000000000000008152600401611fc490613387565b60405180910390fd5b6001600360008473ffffffffffffffffffffffffffffffffffffffff1673ffffffffffffffffffffffffffffffffffffffff16815260200190815260200160002060008282540192505081905550816002600083815260200190815260200160002060006101000a81548173ffffffffffffffffffffffffffffffffffffffff021916908373ffffffffffffffffffffffffffffffffffffffff160217905550808273ffffffffffffffffffffffffffffffffffffffff16600073ffffffffffffffffffffffffffffffffffffffff167fddf252ad1be2c89b69c2b068fc378daa952ba7f163c4a11628f55a4df523b3ef60405160405180910390a46120d7600083836001611b60565b5050565b6040518060a0016040528060008152602001600073ffffffffffffffffffffffffffffffffffffffff1681526020016000815260200160008152602001600081525090565b6000604051905090565b600080fd5b600080fd5b60007fffffffff0000000000000000000000000000000000000000000000000000000082169050919050565b61216981612134565b811461217457600080fd5b50565b60008135905061218681612160565b92915050565b6000602082840312156121a2576121a161212a565b5b60006121b084828501612177565b91505092915050565b60008115159050919050565b6121ce816121b9565b82525050565b60006020820190506121e960008301846121c5565b92915050565b600081519050919050565b600082825260208201905092915050565b60005b8381101561222957808201518184015260208101905061220e565b60008484015250505050565b6000601f19601f8301169050919050565b6000612251826121ef565b61225b81856121fa565b935061226b81856020860161220b565b61227481612235565b840191505092915050565b600060208201905081810360008301526122998184612246565b905092915050565b6000819050919050565b6122b4816122a1565b82525050565b60006020820190506122cf60008301846122ab565b92915050565b6122de816122a1565b81146122e957600080fd5b50565b6000813590506122fb816122d5565b92915050565b6000602082840312156123175761231661212a565b5b6000612325848285016122ec565b91505092915050565b600073ffffffffffffffffffffffffffffffffffffffff82169050919050565b60006123598261232e565b9050919050565b6123698161234e565b82525050565b60006020820190506123846000830184612360565b92915050565b6123938161234e565b811461239e57600080fd5b50565b6000813590506123b08161238a565b92915050565b600080604083850312156123cd576123cc61212a565b5b60006123db858286016123a1565b92505060206123ec858286016122ec565b9150509250929050565b600060a08201905061240b60008301886122ab565b6124186020830187612360565b61242560408301866122ab565b61243260608301856122ab565b61243f60808301846122ab565b9695505050505050565b6000806000606084860312156124625761246161212a565b5b6000612470868287016123a1565b9350506020612481868287016123a1565b9250506040612492868287016122ec565b9150509250925092565b6124a5816122a1565b82525050565b6124b48161234e565b82525050565b60a0820160008201516124d0600085018261249c565b5060208201516124e360208501826124ab565b5060408201516124f6604085018261249c565b506060820151612509606085018261249c565b50608082015161251c608085018261249c565b50505050565b600060a08201905061253760008301846124ba565b92915050565b6000602082840312156125535761255261212a565b5b6000612561848285016123a1565b91505092915050565b600080604083850312156125815761258061212a565b5b600061258f858286016122ec565b92505060206125a0858286016122ec565b9150509250929050565b6125b3816121b9565b81146125be57600080fd5b50565b6000813590506125d0816125aa565b92915050565b600080604083850312156125ed576125ec61212a565b5b60006125fb858286016123a1565b925050602061260c858286016125c1565b9150509250929050565b600080fd5b600080fd5b7f4e487b7100000000000000000000000000000000000000000000000000000000600052604160045260246000fd5b61265882612235565b810181811067ffffffffffffffff8211171561267757612676612620565b5b80604052505050565b600061268a612120565b9050612696828261264f565b919050565b600067ffffffffffffffff8211156126b6576126b5612620565b5b6126bf82612235565b9050602081019050919050565b82818337600083830152505050565b60006126ee6126e98461269b565b612680565b90508281526020810184848401111561270a5761270961261b565b5b6127158482856126cc565b509392505050565b600082601f83011261273257612731612616565b5b81356127428482602086016126db565b91505092915050565b600080600080608085870312156127655761276461212a565b5b6000612773878288016123a1565b9450506020612784878288016123a1565b9350506040612795878288016122ec565b925050606085013567ffffffffffffffff8111156127b6576127b561212f565b5b6127c28782880161271d565b91505092959194509250565b600080604083850312156127e5576127e461212a565b5b60006127f3858286016123a1565b9250506020612804858286016123a1565b9150509250929050565b7f4e487b7100000000000000000000000000000000000000000000000000000000600052602260045260246000fd5b6000600282049050600182168061285557607f821691505b6020821081036128685761286761280e565b5b50919050565b7f4552433732313a20617070726f76616c20746f2063757272656e74206f776e6560008201527f7200000000000000000000000000000000000000000000000000000000000000602082015250565b60006128ca6021836121fa565b91506128d58261286e565b604082019050919050565b600060208201905081810360008301526128f9816128bd565b9050919050565b7f4552433732313a20617070726f76652063616c6c6572206973206e6f7420746f60008201527f6b656e206f776e6572206f7220617070726f76656420666f7220616c6c000000602082015250565b600061295c603d836121fa565b915061296782612900565b604082019050919050565b6000602082019050818103600083015261298b8161294f565b9050919050565b7f4552433732313a2063616c6c6572206973206e6f7420746f6b656e206f776e6560008201527f72206f7220617070726f76656400000000000000000000000000000000000000602082015250565b60006129ee602d836121fa565b91506129f982612992565b604082019050919050565b60006020820190508181036000830152612a1d816129e1565b9050919050565b7f4f6e6c79206f776e657200000000000000000000000000000000000000000000600082015250565b6000612a5a600a836121fa565b9150612a6582612a24565b602082019050919050565b60006020820190508181036000830152612a8981612a4d565b9050919050565b7f4552433732313a20696e76616c696420746f6b656e2049440000000000000000600082015250565b6000612ac66018836121fa565b9150612ad182612a90565b602082019050919050565b60006020820190508181036000830152612af581612ab9565b9050919050565b7f4552433732313a2061646472657373207a65726f206973206e6f74206120766160008201527f6c6964206f776e65720000000000000000000000000000000000000000000000602082015250565b6000612b586029836121fa565b9150612b6382612afc565b604082019050919050565b60006020820190508181036000830152612b8781612b4b565b9050919050565b7f4e6f7420617574686f7269736564000000000000000000000000000000000000600082015250565b6000612bc4600e836121fa565b9150612bcf82612b8e565b602082019050919050565b60006020820190508181036000830152612bf381612bb7565b9050919050565b7f416d6f756e74206d757374206265203e20300000000000000000000000000000600082015250565b6000612c306012836121fa565b9150612c3b82612bfa565b602082019050919050565b60006020820190508181036000830152612c5f81612c23565b9050919050565b7f5072696365206d757374206265203e2030000000000000000000000000000000600082015250565b6000612c9c6011836121fa565b9150612ca782612c66565b602082019050919050565b60006020820190508181036000830152612ccb81612c8f565b9050919050565b7f4e487b7100000000000000000000000000000000000000000000000000000000600052601160045260246000fd5b6000612d0c826122a1565b91507fffffffffffffffffffffffffffffffffffffffffffffffffffffffffffffffff8203612d3e57612d3d612cd2565b5b600182019050919050565b6000612d54826122a1565b9150612d5f836122a1565b9250828202612d6d816122a1565b91508282048414831517612d8457612d83612cd2565b5b5092915050565b7f496e76616c696420726571756573742049440000000000000000000000000000600082015250565b6000612dc16012836121fa565b9150612dcc82612d8b565b602082019050919050565b60006020820190508181036000830152612df081612db4565b9050919050565b7f52657175657374206e6f7420617661696c61626c650000000000000000000000600082015250565b6000612e2d6015836121fa565b9150612e3882612df7565b602082019050919050565b60006020820190508181036000830152612e5c81612e20565b9050919050565b7f43616e6e6f7420627579206f776e206c697374696e6700000000000000000000600082015250565b6000612e996016836121fa565b9150612ea482612e63565b602082019050919050565b60006020820190508181036000830152612ec881612e8c565b9050919050565b7f496e73756666696369656e74207061796d656e74000000000000000000000000600082015250565b6000612f056014836121fa565b9150612f1082612ecf565b602082019050919050565b60006020820190508181036000830152612f3481612ef8565b9050919050565b600081905092915050565b6000612f51826121ef565b612f5b8185612f3b565b9350612f6b81856020860161220b565b80840191505092915050565b6000612f838285612f46565b9150612f8f8284612f46565b91508190509392505050565b7f4552433732313a207472616e736665722066726f6d20696e636f72726563742060008201527f6f776e6572000000000000000000000000000000000000000000000000000000602082015250565b6000612ff76025836121fa565b915061300282612f9b565b604082019050919050565b6000602082019050818103600083015261302681612fea565b9050919050565b7f4552433732313a207472616e7366657220746f20746865207a65726f2061646460008201527f7265737300000000000000000000000000000000000000000000000000000000602082015250565b60006130896024836121fa565b91506130948261302d565b604082019050919050565b600060208201905081810360008301526130b88161307c565b9050919050565b7f4552433732313a20617070726f766520746f2063616c6c657200000000000000600082015250565b60006130f56019836121fa565b9150613100826130bf565b602082019050919050565b60006020820190508181036000830152613124816130e8565b9050919050565b7f4552433732313a207472616e7366657220746f206e6f6e20455243373231526560008201527f63656976657220696d706c656d656e7465720000000000000000000000000000602082015250565b60006131876032836121fa565b91506131928261312b565b604082019050919050565b600060208201905081810360008301526131b68161317a565b9050919050565b7f4e487b7100000000000000000000000000000000000000000000000000000000600052601260045260246000fd5b600081519050919050565b600082825260208201905092915050565b6000613213826131ec565b61321d81856131f7565b935061322d81856020860161220b565b61323681612235565b840191505092915050565b60006080820190506132566000830187612360565b6132636020830186612360565b61327060408301856122ab565b81810360608301526132828184613208565b905095945050505050565b60008151905061329c81612160565b92915050565b6000602082840312156132b8576132b761212a565b5b60006132c68482850161328d565b91505092915050565b7f4552433732313a206d696e7420746f20746865207a65726f2061646472657373600082015250565b60006133056020836121fa565b9150613310826132cf565b602082019050919050565b60006020820190508181036000830152613334816132f8565b9050919050565b7f4552433732313a20746f6b656e20616c7265616479206d696e74656400000000600082015250565b6000613371601c836121fa565b915061337c8261333b565b602082019050919050565b600060208201905081810360008301526133a081613364565b905091905056fea26469706673582212204ddab085c12472fd90fbf4ab275f2b5b2ceeaf183811f3d3f8ac7a0e9ed8388164736f6c63430008110033",
  "linkReferences": {},
  "deployedLinkReferences": {}
}